{
  "_format": "hh-sol-artifact-1",
  "contractName": "Nftmarketplace",
  "sourceName": "src/backend/contracts/Nftmarketplace.sol",
  "abi": [
    {
      "inputs": [
        {
          "internalType": "uint256",
          "name": "_feePercentOnSale",
          "type": "uint256"
        }
      ],
      "stateMutability": "nonpayable",
      "type": "constructor"
    },
    {
      "inputs": [],
      "name": "artistAccount",
      "outputs": [
        {
          "internalType": "address payable",
          "name": "",
          "type": "address"
        }
      ],
      "stateMutability": "view",
      "type": "function"
    },
    {
      "inputs": [],
      "name": "feePercentOnSale",
      "outputs": [
        {
          "internalType": "uint256",
          "name": "",
          "type": "uint256"
        }
      ],
      "stateMutability": "view",
      "type": "function"
    },
    {
      "inputs": [],
      "name": "itemCount",
      "outputs": [
        {
          "internalType": "uint256",
          "name": "",
          "type": "uint256"
        }
      ],
      "stateMutability": "view",
      "type": "function"
    }
  ],
  "bytecode": "0x60c060405234801561001057600080fd5b506040516102b83803806102b883398181016040528101906100329190610094565b60016000819055503373ffffffffffffffffffffffffffffffffffffffff1660808173ffffffffffffffffffffffffffffffffffffffff1660601b815250508060a08181525050506100de565b60008151905061008e816100c7565b92915050565b6000602082840312156100a657600080fd5b60006100b48482850161007f565b91505092915050565b6000819050919050565b6100d0816100bd565b81146100db57600080fd5b50565b60805160601c60a0516101b4610104600039600060cc0152600060a801526101b46000f3fe608060405234801561001057600080fd5b50600436106100415760003560e01c80636bfb0d01146100465780639434078b14610064578063a22cca8014610082575b600080fd5b61004e6100a0565b60405161005b9190610127565b60405180910390f35b61006c6100a6565b604051610079919061010c565b60405180910390f35b61008a6100ca565b6040516100979190610127565b60405180910390f35b60015481565b7f000000000000000000000000000000000000000000000000000000000000000081565b7f000000000000000000000000000000000000000000000000000000000000000081565b6100f781610142565b82525050565b61010681610174565b82525050565b600060208201905061012160008301846100ee565b92915050565b600060208201905061013c60008301846100fd565b92915050565b600061014d82610154565b9050919050565b600073ffffffffffffffffffffffffffffffffffffffff82169050919050565b600081905091905056fea26469706673582212203ae5b92debec77b899bf15bd29afde28517edaeff40160813bff88fb64be261b64736f6c63430008040033",
  "linkReferences": {},
  "deployedLinkReferences": {}
}